CVLFDVTL157726D          DEVCVLLIBF          00000000000017*ZERO                Y                                                                        
CVLFDVTL157726D          DEVCVLLIBF          00000010000025@@UPID               Y                                                                        
CVLFDVTL157726D          DEVCVLLIBF          00000020000025BIFC026A            YY    Y                                                                   
CVLFDVTL157726D          DEVCVLLIBF          00000030000025BIFC026B             Y    Y                                                                   
CVLFDVTL157726D          DEVCVLLIBF          00000040000025BIFP0500A           YY    Y                                                                   
CVLFDVTL157726D          DEVCVLLIBF          00000050000024M@SYSVAR            *LIBL                                                                     
