WBPDAN Danish              NN00          00000NNNWeb performance benchmarks              Enter number of function required or place cursor on same line :            Display process or function HELP text   Return to                               Exit from system                                                                                                                            0027701252          Cancel    Enter     Help      Prompt    Refresh   Messages  Bkwd      Command   Keys      Exit      Exit      Home      Forward   Contents  Ex Help   Help indexKeys help Left      Retrieve  Right     SwitchbkwdSwitch fwdActions   Add/CreateChange    Delete                                            0605040607080407040404040708071009040805101007100606        N
WBPENG English             NN00          00000NYNWeb performance benchmarks              Enter number of function required or place cursor on same line :            Display process or function HELP text   Return to                               Exit from system                                                                                                                                                Cancel    Enter     Help      Prompt    Refresh   Messages  Bkwd      Command   Keys      Exit      Exit      Home      Forward   Contents  Ex Help   Help indexKeys help Left      Retrieve  Right     SwitchbkwdSwitch fwdActions   Add/CreateChange    Delete                                            0605040607080407040404040708071009040805101007100606        N
WBPFRA French              NN00          00000NNNWeb performance benchmarks              Enter number of function required or place cursor on same line :            Display process or function HELP text   Return to                               Exit from system                                                                                                                                      0000000000Cancel    Enter     Help      Prompt    Refresh   Messages  Bkwd      Command   Keys      Exit      Exit      Home      Forward   Contents  Ex Help   Help indexKeys help Left      Retrieve  Right     SwitchbkwdSwitch fwdActions   Add/CreateChange    Delete                                            0605040607080407040404040708071009040805101007100606        N
WBPJPN Japanese            YN00          00000NNNWeb performance benchmarks              Enter number of function required or place cursor on same line :            Display process or function HELP text   Return to                               Exit from system                                                                                                                            0503500932          Cancel    Enter     Help      Prompt    Refresh   Messages  Bkwd      Command   Keys      Exit      Exit      Home      Forward   Contents  Ex Help   Help indexKeys help Left      Retrieve  Right     SwitchbkwdSwitch fwdActions   Add/CreateChange    Delete                                            0605040607080407040404040708071009040805101007100606        N
WBPTRK Turkish             NN00          00000NNNWeb performance benchmarks              Enter number of function required or place cursor on same line :            Display process or function HELP text   Return to                               Exit from system                                                                                                                                                Cancel    Enter     Help      Prompt    Refresh   Messages  Bkwd      Command   Keys      Exit      Exit      Home      Forward   Contents  Ex Help   Help indexKeys help Left      Retrieve  Right     SwitchbkwdSwitch fwdActions   Add/CreateChange    Delete                                            0605040607080407040404040708071009040805101007100606        N
